:020000040800F2
:1000000010040020050100083F0A00088D090008BF
:100010003D0A000871010008A30A00080000000062
:10002000000000000000000000000000430A00087B
:100030007301000800000000410A0008450A00089A
:100040001F0100081F0100081F0100081F01000810
:100050001F0100081F0100081F0100081F01000800
:100060001F0100081F0100081F0100081F010008F0
:100070001F0100081F0100081F0100081F010008E0
:100080001F0100081F0100081F0100081F010008D0
:100090001F0100081F0100081F0100081F010008C0
:1000A0001F0100081F0100081F0100081F010008B0
:1000B0001F0100081F0100081F0100081F010008A0
:1000C0001F0100081F0100081F0100081F01000890
:1000D0001F0100081F0100081F0100081F01000880
:1000E0001F0100081F0100081F010008DFF810D0E1
:1000F00000F02CF800480047690D0008AFF30080BD
:10010000100400200648804706480047FEE7FEE747
:10011000FEE7FEE7FEE7FEE7FEE7FEE7FEE7FEE7B7
:10012000A10A0008ED000008D2B201E000F8012B9E
:10013000491EFBD270470022F6E710B513460A4667
:1001400004461946FFF7F0FF204610BD064C074D48
:1001500006E0E06840F0010394E807009847103497
:10016000AC42F6D3FFF7C6FFF80F000818100008DE
:10017000FEE7704770B5044600F008F90546601CBC
:1001800002D004480078044400F000F9401BA0426B
:10019000FAD370BD000000202DE9F84FDFF8B891C8
:1001A000002409F1040A0AF1040B23460F270BF17E
:1001B000040EC9E00125A5402A40AA427DD1674E20
:1001C000D1F804C0ACEB0608B44532D014DCBCF165
:1001D000030F3AD009DCBCF1000F2AD0BCF1010FAB
:1001E0001CD0BCF1020F31D11DE0BCF1110F17D0B2
:1001F000BCF1120F2AD119E0B8F5881F19D006DC1E
:10020000B8F5803F15D0B8F5801F1FD111E0B8F5C3
:10021000001F0ED0B8F5041F18D10AE0CB6815E016
:10022000CB681B1D12E0CB6808330FE0CB680C33A2
:100230000CE08B682BB1012B4FF0080303D0456114
:1002400004E0042302E0056100E00023FF2A01D856
:10025000064601E000F104064FEA840501D9A5F144
:100260002005D6F8008007FA05FC28EA0C0803FAF6
:1002700005F548EA0508C6F800804D68ED0062D52E
:10028000374DAE6946F00106AE61AD6924F0030654
:1002900005F001050095334D06EB050CDCF8085020
:1002A000A607360F07FA06F825EA0805DFF8B88032
:1002B000404503D14FF0000817E044E0DFF8AC8080
:1002C000404502D14FF001080FE0DFF8A48040451F
:1002D00002D14FF0020808E0DFF89880404502D1D3
:1002E0004FF0030801E04FF0040808FA06F848EA66
:1002F0000508CCF808804D68D9F80060ED034D463C
:1003000001D5164300E096432E604D68DAF8006090
:10031000AD03554601D5164300E096432E604D6867
:10032000DBF80060ED025D4601D5164300E0964320
:100330002E604D68DEF80060AD02754601D51643AB
:1003400000E096432E60641C0D682A46E5407FF469
:1003500031AFBDE8F88F000000040140000011102B
:10036000001002400000014000080140000C014064
:1003700000100140001401408068084000D00120B6
:1003800070470AB1016170470904FBE701488068C2
:100390007047000000000020024881680278114484
:1003A0008160704700000020074810B5016841F0E7
:1003B00010010160032000F067F8002000F006F84B
:1003C00000F024F8002010BD0020024070B50D4D53
:1003D00004464FF47A712878B1FBF0F00A490968B5
:1003E000B1FBF0F000F0BEFA48B9102C07D20022A1
:1003F0002146501E00F028F800206C6070BD0120DE
:1004000070BD0000000000200C0000200C4808B562
:10041000816941F001018161816901F0010100916F
:10042000C16941F08051C161C06900F08050009005
:100430000448416821F0E06141F00071416008BD6D
:100440000010024000000140F0B40E4B1B680C4647
:10045000C3F30223C3F10705042D00D90425191D98
:10046000072901D2002300E0DB1E012606FA05F170
:10047000491E214099409E40761E16403143F0BCF3
:1004800000F010BB0CED00E0064900F00702086820
:100490004FF6FF03184040EA0220034A1043086069
:1004A000704700000CED00E00000FA052DE9F04770
:1004B0000F46050061D0434E306800F00700B84297
:1004C00009D2306820F0070038433060306800F00F
:1004D0000700B84251D128683B4C810712D540072C
:1004E00003D5606840F4E06060602878000703D5B9
:1004F000606840F4605060606068A96820F0F000B7
:10050000084360602878C00728D06868012810D0A8
:100510002168022810D0890700292EDA616821F0AD
:10052000030101436160FFF731FF804641F28839E2
:100530000DE021688903EFE78901EDE7FFF726FF6A
:10054000A0EB0801494502D90320BDE8F0876068A7
:10055000696800F00C00B0EB810FEFD1306800F05B
:100560000700B8420BD9306820F0070038433060EC
:10057000306800F00700B84201D00120E5E7287894
:10058000400705D56068E96820F4E06008436060D2
:100590002878000706D56068296920F4605040EA91
:1005A000C100606000F018F86168084AC1F30311E7
:1005B000515CC8400649086006480068FFF706FF1E
:1005C0000020C2E70020024000100240E80F0008AF
:1005D0000C0000200400002012A185B00FC98DE896
:1005E0000F0014A0144A006804905168134801F0E9
:1005F0000C03042B10D0082B0ED1C1F38343C90385
:100600001DF803000AD5516804AAC1F34041515CAA
:100610000A4A5043B0FBF1F005B07047084948431F
:10062000FAE7000002030405060708090A0B0C0D8F
:100630000E0F1010010200000010024000127A009C
:1006400000093D002DE9F84F040070D02078C04D1E
:10065000C00749D06868C0F38100012807D06868E6
:10066000C0F38100022809D16868C00306D5286854
:10067000800339D560680028E7D035E06068B0F5C0
:10068000803F0BD010B1B0F5A02F11D0286820F416
:1006900080302860286820F4802002E0286840F438
:1006A00080302860606890B1FFF770FE06460AE06F
:1006B000286840F480202860F0E700BFFFF766FE5E
:1006C000801B642873D828688003F7D50CE0FFF7F7
:1006D0005DFE064605E000BFFFF758FE801B64285C
:1006E000F0D828688003F7D420789A4E80074FF01E
:1006F00001094FF0000839D5686810F00C0F07D0D9
:100700006868C0F38100022809D16868C00306D474
:100710002868800714D52069012808D110E02069D5
:10072000B0B1C6F80090FFF731FE074605E00AE1D8
:10073000FFF72CFEC01B0228C4D828688007F7D515
:100740002868616920F0F80040EAC10028600DE0E7
:10075000C6F80080FFF71AFE074604E0FFF716FE12
:10076000C01B022823D828688007F7D42078000708
:100770002CD57948A169D9B1C0F80090FFF706FEE1
:10078000074604E0FFF702FEC01B02280FD8686A84
:100790008007F7D571484FF4FA510068B0FBF1F0CB
:1007A000009000BF0098411E0091FAD20EE080E058
:1007B000C0F80080FFF7EAFD074604E0FFF7E6FD1A
:1007C000C01B022875D8686A8007F7D420784007D4
:1007D00060D5E8690027C00008D4E86940F080507F
:1007E000E861E869012700F0805000905C480168EA
:1007F000C90513D40168834641F480710160FFF795
:10080000C5FD824606E000BFFFF7C0FDA0EB0A0071
:1008100064284ED8DBF80000C005F5D5E068012853
:100820000AD008B1052813D0286A20F001002862F8
:10083000286A20F0040002E0286A40F001002862E3
:10084000E06841F2883B98B1FFF7A0FD82460BE0DB
:10085000286A40F004002862EEE700BFFFF796FD2B
:10086000A0EB0A0159455AD8286A8007F6D50CE052
:10087000FFF78CFD824605E0FFF788FDA0EB0A013B
:1008800059454CD8286A8007F6D41FB1E86920F092
:100890008050E861E06988B36968C1F38101022989
:1008A00044D00228C6F8608004D0FFF76FFD0446EC
:1008B00038E034E0FFF76AFD074604E0FFF766FD25
:1008C000C01B02282BD828688001F7D4206AB0F515
:1008D000803F05D16868A16820F400300843686053
:1008E000D4E908010843696821F474110843686079
:1008F000C6F86090FFF74AFD044606E025E000BF19
:10090000FFF744FD001B022809D828688001F7D5AD
:100910001BE000BFFFF73AFD001B022802D90320AD
:10092000BDE8F88F28688001F4D40EE00128F7D0E4
:100930006868226A00F48031914204D1616A00F44F
:100940007010884201D00120EAE70020E8E70000AB
:100950000010024000004242800442420C0000208D
:100960000070004010B5401EB0F1807F01D301201F
:1009700010BD4FF0E02460610F21601700F092F885
:100980000020A06107202061002010BDFEE70000CC
:100990002DE9F04186B0002425480094019402948A
:1009A0000394816941F020018161816901F0200196
:1009B0000491816941F004018161816901F00401C0
:1009C0000491816941F0080181618069194F00F04B
:1009D000080004900022F6213846FFF7D2FCDFF829
:1009E00058804FF4E046012231464046FFF7C9FCEB
:1009F000F620009001AA0120022582E83100694614
:100A00003846FFF7C9FB40F207408DE831006946E0
:100A10004046FFF7C1FB11200096CDE901050320F8
:100A2000039069464046FFF7B7FB06B0BDE8F0818A
:100A30000010024000080140000C0140FEE7FEE704
:100A400070477047FFF7A8BC30B58FB028216846C3
:100A5000FFF771FB14210AA8FFF76DFB02250120A7
:100A6000049000951020059000244FF4C010CDE9AB
:100A7000084007956846FFF7E5FD08B172B6FEE746
:100A80000F200A90CDE90B540D9401210AA80E9471
:100A9000FFF70CFD002801D072B6FEE70FB030BDA5
:100AA0007047FEE70907090E002804DB00F1E0208B
:100AB00080F80014704700F00F0000F1E02080F88B
:100AC000141D704702E008C8121F08C1002AFAD19D
:100AD00070477047002001E001C1121F002AFBD1BE
:100AE000704700002DE9F04F364A0346106840F089
:100AF0000400106033494FF002080831C1F800804B
:100B000010240C6020250D6040260E6080270F60A9
:100B100000F0D0F8106840F0020010602A4AD806B1
:100B200001D5146002E04FF48010106098064FF475
:100B3000001901D5156001E0C2F8009058064FF485
:100B4000800A01D5166001E0C2F800A018064FF433
:100B5000000B01D5176001E0C2F800B000F0AAF860
:100B6000C1F800800C600D600E600F6000F0A2F80C
:100B70001448D0F800C04CF0020CC0F800C0D807F0
:100B800001D0146002E04FF480101060980701D586
:100B9000156001E0C2F80090580701D5166001E029
:100BA000C2F800A0180701D5176001E0C2F800B034
:100BB00000F080F8C1F800800C600D600E600F60DE
:100BC000BDE8F08F0C080140100801402DE9F04FFE
:100BD00037490346042008604FF00209C1F800902D
:100BE00010240C6020250D6040260E6080270F60C9
:100BF00000F060F8DFF8B880A8F10808D8F8002005
:100C000042F00202C8F80020D8064FF4801A08F11A
:100C1000040201D5146001E0C2F800A098064FF468
:100C2000001B01D5156001E0C2F800B0580601D5DF
:100C3000166002E04FF480001060180601D51760BE
:100C400002E04FF40000106000F034F8C1F80090AA
:100C50000C600D600E600F6000F02CF8D8F800C03A
:100C60004CF0020CC8F800C0D80701D0146001E0B5
:100C7000C2F800A0980701D5156001E0C2F800B0E5
:100C8000580701D5166002E04FF480001060180785
:100C900001D5176002E04FF40000106000F00AF880
:100CA000C1F800900C600D600E600F60BDE8F08F21
:100CB000140801404FF47A70401EFDD1704701289E
:100CC00005D0022805D1BF31C8B2FFF77FBF7F3101
:100CD000FAE7704770B5064614460D46FA20FFF74E
:100CE00049FA0220FFF772FF3220FFF743FA2E4342
:100CF000264346F02000FFF769FF3220FFF73AFA5B
:100D00000620FFF763FF3220FFF734FA0E20FFF7CB
:100D10005DFF3220FFF72EFA0C20FFF757FF32203D
:100D2000FFF728FA0120FFF751FFBDE8704064206B
:100D3000FFF720BA10B5044606E000BFFFF7BAFF80
:100D400014F8010BFFF7CEFE20780028F6D1BDE89D
:100D50001040FFF7AFBF10B51446FFF7B0FF2046B5
:100D6000BDE81040FFF7E6BFFFF71EFBFFF76CFE84
:100D7000FFF70EFE002108220846FFF7ABFF8D4C5F
:100D80004FF48069A51466144FF4804800220121B5
:100D90002046FFF7F6FA012202212046FFF7F1FA7A
:100DA000012204212046FFF7ECFA01224F46494672
:100DB0002046FFF7E6FA0120FFF7DCF92946204636
:100DC000FFF7DAFA20B97CA201210220FFF7C3FF66
:100DD00031462046FFF7D0FA20B978A2012102203F
:100DE000FFF7B9FF41462046FFF7C6FA20B974A2C3
:100DF00001210220FFF7AFFF012229462046FFF71D
:100E0000C0FA012231462046FFF7BBFA01224146D3
:100E10002046FFF7B6FA012211462046FFF7B1FA45
:100E2000002202212046FFF7ACFA012204212046CD
:100E3000FFF7A7FA0122B94639462046FFF7A1FA83
:100E40000120FFF797F929462046FFF795FA20B9C8
:100E50005CA201210220FFF77EFF31462046FFF70A
:100E60008BFA20B958A201210220FFF774FF4746F0
:100E700041462046FFF780FA20B954A20121022002
:100E8000FFF769FF012229462046FFF77AFA01227F
:100E900031462046FFF775FA012239462046FFF712
:100EA00070FA012211462046FFF76BFA0122022157
:100EB0002046FFF766FA002204212046FFF761FA78
:100EC000012249462046FFF75CFA0120FFF752F95C
:100ED00029462046FFF750FA20B93DA20121022001
:100EE000FFF739FF31462046FFF746FA20B939A20D
:100EF00001210220FFF72FFF39462046FFF73CFA79
:100F000020B935A201210220FFF725FF0122294641
:100F10002046FFF736FA012231462046FFF731FA24
:100F2000012239462046FFF72CFA012211462046BD
:100F3000FFF727FA012202212046FFF722FA0122B9
:100F400004212046FFF71DFA002249462046FFF7FC
:100F500018FA0120FFF70EF929462046FFF70CFA90
:100F600020B91EA201210220FFF7F5FE31462046DE
:100F7000FFF702FA20B91AA201210220FFF7EBFEC7
:100F800039462046FFF7F8F920B916A201210220C0
:100F9000FFF7E1FE012229462046FFF7F2F9012280
:100FA00031462046FFF7EDF9012239462046FFF78A
:100FB000E8F9EBE6000C01403100000032000000CF
:100FC000330000003400000035000000360000004F
:100FD0003700000038000000390000002A0000003F
:100FE00030000000230000000000000000000000AE
:100FF0000102030406070809181000080000002079
:1010000010000000C40A000828100008100000208A
:1010100000040000D40A00080100000010000000D5
:08102000000000000024F400B0
:04000005080000ED02
:00000001FF
